{
  "contractName": "Plateform",
  "abi": [
    {
      "inputs": [
        {
          "name": "_votePrice",
          "type": "uint256"
        },
        {
          "name": "_createShopPrice",
          "type": "uint256"
        }
      ],
      "payable": false,
      "stateMutability": "nonpayable",
      "type": "constructor",
      "signature": "constructor"
    },
    {
      "constant": false,
      "inputs": [
        {
          "name": "_shopName",
          "type": "string"
        }
      ],
      "name": "createShop",
      "outputs": [],
      "payable": true,
      "stateMutability": "payable",
      "type": "function",
      "signature": "0xe674d1f6"
    },
    {
      "constant": false,
      "inputs": [
        {
          "name": "_shopName",
          "type": "string"
        },
        {
          "name": "_description",
          "type": "string"
        }
      ],
      "name": "createComment",
      "outputs": [],
      "payable": true,
      "stateMutability": "payable",
      "type": "function",
      "signature": "0xa1edee49"
    },
    {
      "constant": false,
      "inputs": [
        {
          "name": "_commentId",
          "type": "uint256"
        }
      ],
      "name": "voted",
      "outputs": [],
      "payable": true,
      "stateMutability": "payable",
      "type": "function",
      "signature": "0x8fbb38ff"
    },
    {
      "constant": true,
      "inputs": [
        {
          "name": "_shopName",
          "type": "string"
        }
      ],
      "name": "getCommentPrice",
      "outputs": [
        {
          "name": "",
          "type": "uint256"
        }
      ],
      "payable": false,
      "stateMutability": "view",
      "type": "function",
      "signature": "0x2c9e0107"
    },
    {
      "constant": true,
      "inputs": [
        {
          "name": "_commentId",
          "type": "uint256"
        }
      ],
      "name": "getComment",
      "outputs": [
        {
          "name": "",
          "type": "address"
        },
        {
          "name": "",
          "type": "string"
        },
        {
          "name": "",
          "type": "string"
        },
        {
          "name": "",
          "type": "bool"
        },
        {
          "name": "",
          "type": "uint256"
        }
      ],
      "payable": false,
      "stateMutability": "view",
      "type": "function",
      "signature": "0x0800e300"
    }
  ],
  "bytecode": "0x608060405234801561001057600080fd5b50604051604080610e818339810180604052604081101561003057600080fd5b81019080805190602001909291908051906020019092919050505081600181905550806002819055505050610e178061006a6000396000f3fe60806040526004361061006d576000357c0100000000000000000000000000000000000000000000000000000000900463ffffffff1680630800e300146100725780632c9e0107146101d75780638fbb38ff146102b3578063a1edee49146102e1578063e674d1f614610433575b600080fd5b34801561007e57600080fd5b506100ab6004803603602081101561009557600080fd5b81019080803590602001909291905050506104ee565b604051808673ffffffffffffffffffffffffffffffffffffffff1673ffffffffffffffffffffffffffffffffffffffff168152602001806020018060200185151515158152602001848152602001838103835287818151815260200191508051906020019080838360005b83811015610131578082015181840152602081019050610116565b50505050905090810190601f16801561015e5780820380516001836020036101000a031916815260200191505b50838103825286818151815260200191508051906020019080838360005b8381101561019757808201518184015260208101905061017c565b50505050905090810190601f1680156101c45780820380516001836020036101000a031916815260200191505b5097505050505050505060405180910390f35b3480156101e357600080fd5b5061029d600480360360208110156101fa57600080fd5b810190808035906020019064010000000081111561021757600080fd5b82018360208201111561022957600080fd5b8035906020019184600183028401116401000000008311171561024b57600080fd5b91908080601f016020809104026020016040519081016040528093929190818152602001838380828437600081840152601f19601f820116905080830192505050505050509192919290505050610720565b6040518082815260200191505060405180910390f35b6102df600480360360208110156102c957600080fd5b8101908080359060200190929190505050610795565b005b610431600480360360408110156102f757600080fd5b810190808035906020019064010000000081111561031457600080fd5b82018360208201111561032657600080fd5b8035906020019184600183028401116401000000008311171561034857600080fd5b91908080601f016020809104026020016040519081016040528093929190818152602001838380828437600081840152601f19601f820116905080830192505050505050509192919290803590602001906401000000008111156103ab57600080fd5b8201836020820111156103bd57600080fd5b803590602001918460018302840111640100000000831117156103df57600080fd5b91908080601f016020809104026020016040519081016040528093929190818152602001838380828437600081840152601f19601f8201169050808301925050505050505091929192905050506109f3565b005b6104ec6004803603602081101561044957600080fd5b810190808035906020019064010000000081111561046657600080fd5b82018360208201111561047857600080fd5b8035906020019184600183028401116401000000008311171561049a57600080fd5b91908080601f016020809104026020016040519081016040528093929190818152602001838380828437600081840152601f19601f820116905080830192505050505050509192919290505050610bd6565b005b60006060806000806104fe610d05565b60008781548110151561050d57fe5b9060005260206000209060040201608060405190810160405290816000820160009054906101000a900473ffffffffffffffffffffffffffffffffffffffff1673ffffffffffffffffffffffffffffffffffffffff1673ffffffffffffffffffffffffffffffffffffffff168152602001600182018054600181600116156101000203166002900480601f0160208091040260200160405190810160405280929190818152602001828054600181600116156101000203166002900480156106165780601f106105eb57610100808354040283529160200191610616565b820191906000526020600020905b8154815290600101906020018083116105f957829003601f168201915b50505050508152602001600282018054600181600116156101000203166002900480601f0160208091040260200160405190810160405280929190818152602001828054600181600116156101000203166002900480156106b85780601f1061068d576101008083540402835291602001916106b8565b820191906000526020600020905b81548152906001019060200180831161069b57829003601f168201915b505050505081526020016003820160009054906101000a900460ff16151515158152505090508060000151816020015182604001518360600151600760008c815260200190815260200160002054839350829250955095509550955095505091939590929450565b60006004826040518082805190602001908083835b60208310151561075a5780518252602082019150602081019050602083039250610735565b6001836020036101000a0380198251168184511680821785525050505050509050019150509081526020016040518091039020549050919050565b6000818154811015156107a457fe5b906000526020600020906004020160030160009054906101000a900460ff161515156107cf57600080fd5b60016007600083815260200190815260200160002054016007600083815260200190815260200160002081905550600260076000838152602001908152602001600020541015156109f057606060008281548110151561082b57fe5b90600052602060002090600402016001018054600181600116156101000203166002900480601f0160208091040260200160405190810160405280929190818152602001828054600181600116156101000203166002900480156108d05780601f106108a5576101008083540402835291602001916108d0565b820191906000526020600020905b8154815290600101906020018083116108b357829003601f168201915b5050505050905060016000838154811015156108e857fe5b906000526020600020906004020160030160006101000a81548160ff02191690831515021790555060016004826040518082805190602001908083835b60208310151561094a5780518252602082019150602081019050602083039250610925565b6001836020036101000a038019825116818451168082178552505050505050905001915050908152602001604051809103902054016004826040518082805190602001908083835b6020831015156109b75780518252602082019150602081019050602083039250610992565b6001836020036101000a038019825116818451168082178552505050505050905001915050908152602001604051809103902081905550505b50565b6004826040518082805190602001908083835b602083101515610a2b5780518252602082019150602081019050602083039250610a06565b6001836020036101000a0380198251168184511680821785525050505050509050019150509081526020016040518091039020543410151515610a6d57600080fd5b6000600160006080604051908101604052803373ffffffffffffffffffffffffffffffffffffffff168152602001868152602001858152602001600015158152509080600181540180825580915050906001820390600052602060002090600402016000909192909190915060008201518160000160006101000a81548173ffffffffffffffffffffffffffffffffffffffff021916908373ffffffffffffffffffffffffffffffffffffffff1602179055506020820151816001019080519060200190610b3c929190610d46565b506040820151816002019080519060200190610b59929190610d46565b5060608201518160030160006101000a81548160ff0219169083151502179055505050039050336006600083815260200190815260200160002060006101000a81548173ffffffffffffffffffffffffffffffffffffffff021916908373ffffffffffffffffffffffffffffffffffffffff160217905550505050565b6002543410151515610be757600080fd5b60016004826040518082805190602001908083835b602083101515610c215780518252602082019150602081019050602083039250610bfc565b6001836020036101000a038019825116818451168082178552505050505050905001915050908152602001604051809103902081905550336005826040518082805190602001908083835b602083101515610c915780518252602082019150602081019050602083039250610c6c565b6001836020036101000a038019825116818451168082178552505050505050905001915050908152602001604051809103902060006101000a81548173ffffffffffffffffffffffffffffffffffffffff021916908373ffffffffffffffffffffffffffffffffffffffff16021790555050565b608060405190810160405280600073ffffffffffffffffffffffffffffffffffffffff16815260200160608152602001606081526020016000151581525090565b828054600181600116156101000203166002900490600052602060002090601f016020900481019282601f10610d8757805160ff1916838001178555610db5565b82800160010185558215610db5579182015b82811115610db4578251825591602001919060010190610d99565b5b509050610dc29190610dc6565b5090565b610de891905b80821115610de4576000816000905550600101610dcc565b5090565b9056fea165627a7a723058200456366ac72b6b6e05571de0d2bdae5a4e6a0ba4ac36495f10d21c5dece877500029",
  "source": "pragma solidity >0.4.99 <0.6.0;\n\ncontract Plateform {\n    struct Comment {\n        address author;\n        string shopName;\n        string description;\n        bool accepted;\n    }\n\n    Comment[] comments;\n\n    uint256 votePrice;\n    uint256 createShopPrice;\n    uint256 acceptedCommentCount;\n\n    mapping(string => uint256) commentPrice;\n    mapping(string => address) shopNameToAddress;\n    mapping(uint256 => address) commentToOwner;\n    mapping(uint256 => uint256) acceptedCount;\n\n    constructor(uint256 _votePrice, uint256 _createShopPrice) public {\n        votePrice = _votePrice;\n        createShopPrice = _createShopPrice;\n    }\n\n    function createShop(string memory _shopName) public payable {\n        require(msg.value >= createShopPrice);\n\n        commentPrice[_shopName] = 1;\n        shopNameToAddress[_shopName] = msg.sender;\n    }\n\n    function createComment(string memory _shopName, string memory _description) public payable {\n        require(msg.value >= commentPrice[_shopName]);\n\n        uint id = comments.push(Comment(msg.sender, _shopName, _description, false)) - 1;\n        commentToOwner[id] = msg.sender;\n    }\n\n    function voted(uint _commentId) public payable {\n        require(!comments[_commentId].accepted);\n\n        acceptedCount[_commentId] = acceptedCount[_commentId] + 1;\n\n        if(acceptedCount[_commentId] >= 2) {\n            string memory shopName = comments[_commentId].shopName;\n            comments[_commentId].accepted = true;\n            commentPrice[shopName] = commentPrice[shopName] + 1;\n        }\n    }\n\n    function getCommentPrice(string memory _shopName) public view returns(uint256) {\n        return commentPrice[_shopName];\n    }\n\n    function getComment(uint256 _commentId) public view returns (address, string memory, string memory, bool, uint256) {\n        Comment memory comment = comments[_commentId];\n        return (comment.author, comment.shopName, comment.description, comment.accepted, acceptedCount[_commentId]);\n    }\n\n}\n",
  "sourcePath": "/Users/jefferyhsieh/Desktop/workspace/food_around_me/solidity/contracts/Plateform.sol",
  "compiler": {
    "name": "solc",
    "version": "0.5.0+commit.1d4f565a.Emscripten.clang"
  },
  "schemaVersion": "3.0.2",
  "updatedAt": "2019-04-20T15:36:43.184Z",
  "devdoc": {
    "methods": {}
  },
  "userdoc": {
    "methods": {}
  }
}