{
  "contractName": "shopCommentFactory",
  "abi": [
    {
      "constant": true,
      "inputs": [],
      "name": "shopOwner",
      "outputs": [
        {
          "name": "",
          "type": "address"
        }
      ],
      "payable": false,
      "stateMutability": "view",
      "type": "function"
    },
    {
      "constant": true,
      "inputs": [
        {
          "name": "",
          "type": "uint256"
        }
      ],
      "name": "commentToOwner",
      "outputs": [
        {
          "name": "",
          "type": "address"
        }
      ],
      "payable": false,
      "stateMutability": "view",
      "type": "function"
    },
    {
      "constant": true,
      "inputs": [],
      "name": "votePrice",
      "outputs": [
        {
          "name": "",
          "type": "uint256"
        }
      ],
      "payable": false,
      "stateMutability": "view",
      "type": "function"
    },
    {
      "constant": false,
      "inputs": [
        {
          "name": "_customerAddress",
          "type": "address"
        }
      ],
      "name": "addCustomer",
      "outputs": [],
      "payable": false,
      "stateMutability": "nonpayable",
      "type": "function"
    },
    {
      "constant": true,
      "inputs": [],
      "name": "shopName",
      "outputs": [
        {
          "name": "",
          "type": "string"
        }
      ],
      "payable": false,
      "stateMutability": "view",
      "type": "function"
    },
    {
      "constant": true,
      "inputs": [],
      "name": "createCommentPrice",
      "outputs": [
        {
          "name": "",
          "type": "uint256"
        }
      ],
      "payable": false,
      "stateMutability": "view",
      "type": "function"
    },
    {
      "constant": true,
      "inputs": [
        {
          "name": "",
          "type": "uint256"
        }
      ],
      "name": "viewPrice",
      "outputs": [
        {
          "name": "",
          "type": "uint256"
        }
      ],
      "payable": false,
      "stateMutability": "view",
      "type": "function"
    },
    {
      "constant": true,
      "inputs": [
        {
          "name": "",
          "type": "address"
        }
      ],
      "name": "isInvestorOrAuthor",
      "outputs": [
        {
          "name": "",
          "type": "bool"
        }
      ],
      "payable": false,
      "stateMutability": "view",
      "type": "function"
    },
    {
      "inputs": [
        {
          "name": "_owner",
          "type": "address"
        },
        {
          "name": "_shopName",
          "type": "string"
        }
      ],
      "payable": false,
      "stateMutability": "nonpayable",
      "type": "constructor"
    },
    {
      "anonymous": false,
      "inputs": [
        {
          "indexed": false,
          "name": "commentId",
          "type": "uint256"
        }
      ],
      "name": "createCommentSuccess",
      "type": "event"
    },
    {
      "anonymous": false,
      "inputs": [
        {
          "indexed": false,
          "name": "commentId",
          "type": "uint256"
        },
        {
          "indexed": false,
          "name": "viewPrice",
          "type": "uint256"
        }
      ],
      "name": "voteCountIncrease",
      "type": "event"
    },
    {
      "anonymous": false,
      "inputs": [
        {
          "indexed": false,
          "name": "description",
          "type": "string"
        }
      ],
      "name": "getCommentSuccess",
      "type": "event"
    },
    {
      "constant": false,
      "inputs": [
        {
          "name": "_description",
          "type": "string"
        }
      ],
      "name": "createComment",
      "outputs": [],
      "payable": true,
      "stateMutability": "payable",
      "type": "function"
    },
    {
      "constant": false,
      "inputs": [
        {
          "name": "_commentId",
          "type": "uint256"
        }
      ],
      "name": "vote",
      "outputs": [],
      "payable": true,
      "stateMutability": "payable",
      "type": "function"
    },
    {
      "constant": false,
      "inputs": [
        {
          "name": "_commentId",
          "type": "uint256"
        }
      ],
      "name": "getCommentAccepted",
      "outputs": [],
      "payable": true,
      "stateMutability": "payable",
      "type": "function"
    }
  ],
  "bytecode": "0x60806040523480156200001157600080fd5b50604051620010b7380380620010b7833981018060405260408110156200003757600080fd5b810190808051906020019092919080516401000000008111156200005a57600080fd5b828101905060208101848111156200007157600080fd5b81518560018202830111640100000000821117156200008f57600080fd5b5050929190505050818181600160006101000a81548173ffffffffffffffffffffffffffffffffffffffff021916908373ffffffffffffffffffffffffffffffffffffffff1602179055508060009080519060200190620000f29291906200010d565b505050600160028190555060026003819055505050620001bc565b828054600181600116156101000203166002900490600052602060002090601f016020900481019282601f106200015057805160ff191683800117855562000181565b8280016001018555821562000181579182015b828111156200018057825182559160200191906001019062000163565b5b50905062000190919062000194565b5090565b620001b991905b80821115620001b55760008160009055506001016200019b565b5090565b90565b610eeb80620001cc6000396000f3fe6080604052600436106100af576000357c0100000000000000000000000000000000000000000000000000000000900463ffffffff1680630121b93f146100b4578063052cbab6146100e25780632bdd2c9414610139578063564faa401461016757806371f13071146101e2578063860c851a1461029d578063ad973d74146102c8578063d1118f5a14610319578063e0072e2f146103a9578063e865579f146103d4578063f2a6d5df14610423575b600080fd5b6100e0600480360360208110156100ca57600080fd5b810190808035906020019092919050505061048c565b005b3480156100ee57600080fd5b506100f761079a565b604051808273ffffffffffffffffffffffffffffffffffffffff1673ffffffffffffffffffffffffffffffffffffffff16815260200191505060405180910390f35b6101656004803603602081101561014f57600080fd5b81019080803590602001909291905050506107c0565b005b34801561017357600080fd5b506101a06004803603602081101561018a57600080fd5b810190808035906020019092919050505061094a565b604051808273ffffffffffffffffffffffffffffffffffffffff1673ffffffffffffffffffffffffffffffffffffffff16815260200191505060405180910390f35b61029b600480360360208110156101f857600080fd5b810190808035906020019064010000000081111561021557600080fd5b82018360208201111561022757600080fd5b8035906020019184600183028401116401000000008311171561024957600080fd5b91908080601f016020809104026020016040519081016040528093929190818152602001838380828437600081840152601f19601f82011690508083019250505050505050919291929050505061097d565b005b3480156102a957600080fd5b506102b2610aa4565b6040518082815260200191505060405180910390f35b3480156102d457600080fd5b50610317600480360360208110156102eb57600080fd5b81019080803573ffffffffffffffffffffffffffffffffffffffff169060200190929190505050610aaa565b005b34801561032557600080fd5b5061032e610b61565b6040518080602001828103825283818151815260200191508051906020019080838360005b8381101561036e578082015181840152602081019050610353565b50505050905090810190601f16801561039b5780820380516001836020036101000a031916815260200191505b509250505060405180910390f35b3480156103b557600080fd5b506103be610bff565b6040518082815260200191505060405180910390f35b3480156103e057600080fd5b5061040d600480360360208110156103f757600080fd5b8101908080359060200190929190505050610c05565b6040518082815260200191505060405180910390f35b34801561042f57600080fd5b506104726004803603602081101561044657600080fd5b81019080803573ffffffffffffffffffffffffffffffffffffffff169060200190929190505050610c1d565b604051808215151515815260200191505060405180910390f35b600460003373ffffffffffffffffffffffffffffffffffffffff1673ffffffffffffffffffffffffffffffffffffffff16815260200190815260200160002060009054906101000a900460ff1615156104e457600080fd5b6000600760008381526020019081526020016000205414151561050657600080fd5b600460003373ffffffffffffffffffffffffffffffffffffffff1673ffffffffffffffffffffffffffffffffffffffff16815260200190815260200160002060009054906101000a900460ff16151561055e57600080fd5b600860003373ffffffffffffffffffffffffffffffffffffffff1673ffffffffffffffffffffffffffffffffffffffff16815260200190815260200160002060009054906101000a900460ff161515156105b757600080fd5b60025434101515156105c857600080fd5b6001600860003373ffffffffffffffffffffffffffffffffffffffff1673ffffffffffffffffffffffffffffffffffffffff16815260200190815260200160002060006101000a81548160ff021916908315150217905550600a60008281526020019081526020016000203390806001815401808255809150509060018203906000526020600020016000909192909190916101000a81548173ffffffffffffffffffffffffffffffffffffffff021916908373ffffffffffffffffffffffffffffffffffffffff160217905550506106be60016009600084815260200190815260200160002054610c3d90919063ffffffff16565b6009600083815260200190815260200160002081905550600360096000838152602001908152602001600020541015156107455760035460076000838152602001908152602001600020819055506107226002600354610c3d90919063ffffffff16565b60038190555061073e6001600254610c3d90919063ffffffff16565b6002819055505b7f72c8cfaeb24031a8f8095b07d2a48b3a98701e92e39cac3be357d76cd518c33c816007600084815260200190815260200160002054604051808381526020018281526020019250505060405180910390a150565b600160009054906101000a900473ffffffffffffffffffffffffffffffffffffffff1681565b600760008281526020019081526020016000205434101515156107e257600080fd5b6006600082815260200190815260200160002060009054906101000a900473ffffffffffffffffffffffffffffffffffffffff1673ffffffffffffffffffffffffffffffffffffffff166108fc60076000848152602001908152602001600020549081150290604051600060405180830381858888f1935050505015801561086e573d6000803e3d6000fd5b507fce70e94fc7b43d4faf812f9a9ff600cafe0d3d009ffb754b10d1f68cc9a4fbf960058281548110151561089f57fe5b906000526020600020906002020160010160405180806020018281038252838181546001816001161561010002031660029004815260200191508054600181600116156101000203166002900480156109395780601f1061090e57610100808354040283529160200191610939565b820191906000526020600020905b81548152906001019060200180831161091c57829003601f168201915b50509250505060405180910390a150565b60066020528060005260406000206000915054906101000a900473ffffffffffffffffffffffffffffffffffffffff1681565b600460003373ffffffffffffffffffffffffffffffffffffffff1673ffffffffffffffffffffffffffffffffffffffff16815260200190815260200160002060009054906101000a900460ff1615156109d557600080fd5b600860003373ffffffffffffffffffffffffffffffffffffffff1673ffffffffffffffffffffffffffffffffffffffff16815260200190815260200160002060009054906101000a900460ff16151515610a2e57600080fd5b6003543410151515610a3f57600080fd5b610a493382610cc7565b6001600860003373ffffffffffffffffffffffffffffffffffffffff1673ffffffffffffffffffffffffffffffffffffffff16815260200190815260200160002060006101000a81548160ff02191690831515021790555050565b60025481565b3373ffffffffffffffffffffffffffffffffffffffff16600160009054906101000a900473ffffffffffffffffffffffffffffffffffffffff1673ffffffffffffffffffffffffffffffffffffffff16141515610b0657600080fd5b6001600460008373ffffffffffffffffffffffffffffffffffffffff1673ffffffffffffffffffffffffffffffffffffffff16815260200190815260200160002060006101000a81548160ff02191690831515021790555050565b60008054600181600116156101000203166002900480601f016020809104026020016040519081016040528092919081815260200182805460018160011615610100020316600290048015610bf75780601f10610bcc57610100808354040283529160200191610bf7565b820191906000526020600020905b815481529060010190602001808311610bda57829003601f168201915b505050505081565b60035481565b60076020528060005260406000206000915090505481565b60086020528060005260406000206000915054906101000a900460ff1681565b6000808284019050838110151515610cbd576040517f08c379a000000000000000000000000000000000000000000000000000000000815260040180806020018281038252601b8152602001807f536166654d6174683a206164646974696f6e206f766572666c6f77000000000081525060200191505060405180910390fd5b8091505092915050565b60006001600560408051908101604052808673ffffffffffffffffffffffffffffffffffffffff168152602001858152509080600181540180825580915050906001820390600052602060002090600202016000909192909190915060008201518160000160006101000a81548173ffffffffffffffffffffffffffffffffffffffff021916908373ffffffffffffffffffffffffffffffffffffffff1602179055506020820151816001019080519060200190610d86929190610e1a565b505050039050826006600083815260200190815260200160002060006101000a81548173ffffffffffffffffffffffffffffffffffffffff021916908373ffffffffffffffffffffffffffffffffffffffff1602179055507f56a23940a61fb1a524cd941d912314540a8fa8e62191d2d152d0fd3472688027816040518082815260200191505060405180910390a1505050565b828054600181600116156101000203166002900490600052602060002090601f016020900481019282601f10610e5b57805160ff1916838001178555610e89565b82800160010185558215610e89579182015b82811115610e88578251825591602001919060010190610e6d565b5b509050610e969190610e9a565b5090565b610ebc91905b80821115610eb8576000816000905550600101610ea0565b5090565b9056fea165627a7a72305820ee7ba824decb29568ebc982ba14f54e98d834203077abe1c39615fe4c3c0fa3e0029",
  "source": "pragma solidity >=0.5.0 <0.6.0;\n\nimport \"./shop.sol\";\n\ncontract shopCommentFactory is Shop {\n\n    struct Comment {\n        address author;\n        string description;\n    }\n\n    Comment[] private commentList;\n\n    mapping(uint => address payable) public commentToOwner;\n    mapping(uint => uint) public viewPrice;\n    mapping(address => bool) public isInvestorOrAuthor;\n    mapping(uint => uint) internal commentAgreementCount;\n    mapping(uint => address[]) internal investors;\n\n    event createCommentSuccess(uint commentId);\n    event voteCountIncrease(uint commentId, uint viewPrice);\n    event getCommentSuccess(string description);\n\n    modifier isCustomer() {\n        require(hasBeenVisited[msg.sender]);\n        _;\n    }\n\n    constructor(address _owner, string memory _shopName) Shop(_owner, _shopName) public {\n        votePrice = 1;\n        createCommentPrice = 2;\n    }\n\n    function _createComment(address payable _author, string memory _description) internal {\n        uint id = commentList.push(Comment(_author,_description)) - 1;\n        commentToOwner[id] = _author;\n        emit createCommentSuccess(id);\n    }\n\n    function createComment(string memory _description) isCustomer payable public {\n        require(!isInvestorOrAuthor[msg.sender]);\n        require(msg.value >= createCommentPrice);\n\n        _createComment(msg.sender, _description);\n        isInvestorOrAuthor[msg.sender] = true;\n    }\n\n    function vote(uint _commentId) isCustomer external payable {\n        require(viewPrice[_commentId] == 0);\n        require(hasBeenVisited[msg.sender]);\n        require(!isInvestorOrAuthor[msg.sender]);\n        require(msg.value >= votePrice);\n\n        isInvestorOrAuthor[msg.sender] = true;\n        investors[_commentId].push(msg.sender);\n        commentAgreementCount[_commentId] = commentAgreementCount[_commentId].add(1);\n\n        if(commentAgreementCount[_commentId] >= 3) {\n            viewPrice[_commentId] = createCommentPrice;\n            createCommentPrice = createCommentPrice.add(2);\n            votePrice = votePrice.add(1);\n        }\n\n        emit voteCountIncrease(_commentId, viewPrice[_commentId]);\n    }\n\n    function getCommentAccepted(uint _commentId) external payable {\n\t\t    require(msg.value >= viewPrice[_commentId]);\n\n        commentToOwner[_commentId].transfer(viewPrice[_commentId]);\n        emit getCommentSuccess(commentList[_commentId].description);\n    }\n}\n",
  "sourcePath": "/Users/jefferyhsieh/Desktop/workspace/shop_around_me/web/solidity/contracts/shopCommentFactory.sol",
  "compiler": {
    "name": "solc",
    "version": "0.5.0+commit.1d4f565a.Emscripten.clang"
  },
  "schemaVersion": "3.0.2",
  "updatedAt": "2019-06-03T07:41:42.431Z",
  "devdoc": {
    "methods": {}
  },
  "userdoc": {
    "methods": {}
  }
}