{
  "contractName": "shopGenerator",
  "abi": [
    {
      "inputs": [],
      "payable": false,
      "stateMutability": "nonpayable",
      "type": "constructor",
      "signature": "constructor"
    },
    {
      "anonymous": false,
      "inputs": [
        {
          "indexed": false,
          "name": "_newContract",
          "type": "address"
        }
      ],
      "name": "newShop",
      "type": "event",
      "signature": "0xdaf3ad65fca6081fc1f0ad9f8ea4723cd6931e4876c23d9cfbb27a0c5e2aff9b"
    },
    {
      "constant": false,
      "inputs": [
        {
          "name": "_owner",
          "type": "address"
        },
        {
          "name": "_shopName",
          "type": "string"
        }
      ],
      "name": "shopContractGenerator",
      "outputs": [],
      "payable": false,
      "stateMutability": "nonpayable",
      "type": "function",
      "signature": "0x21ffe677"
    }
  ],
  "bytecode": "0x608060405234801561001057600080fd5b50336000806101000a81548173ffffffffffffffffffffffffffffffffffffffff021916908373ffffffffffffffffffffffffffffffffffffffff160217905550611356806100606000396000f3fe608060405260043610610041576000357c0100000000000000000000000000000000000000000000000000000000900463ffffffff16806321ffe67714610046575b600080fd5b34801561005257600080fd5b5061012c6004803603604081101561006957600080fd5b81019080803573ffffffffffffffffffffffffffffffffffffffff169060200190929190803590602001906401000000008111156100a657600080fd5b8201836020820111156100b857600080fd5b803590602001918460018302840111640100000000831117156100da57600080fd5b91908080601f016020809104026020016040519081016040528093929190818152602001838380828437600081840152601f19601f82011690508083019250505050505050919291929050505061012e565b005b6000828261013a610263565b808373ffffffffffffffffffffffffffffffffffffffff1673ffffffffffffffffffffffffffffffffffffffff16815260200180602001828103825283818151815260200191508051906020019080838360005b838110156101a957808201518184015260208101905061018e565b50505050905090810190601f1680156101d65780820380516001836020036101000a031916815260200191505b509350505050604051809103906000f0801580156101f8573d6000803e3d6000fd5b5090507fdaf3ad65fca6081fc1f0ad9f8ea4723cd6931e4876c23d9cfbb27a0c5e2aff9b81604051808273ffffffffffffffffffffffffffffffffffffffff1673ffffffffffffffffffffffffffffffffffffffff16815260200191505060405180910390a1505050565b6040516110b7806102748339019056fe60806040523480156200001157600080fd5b50604051620010b7380380620010b7833981018060405260408110156200003757600080fd5b810190808051906020019092919080516401000000008111156200005a57600080fd5b828101905060208101848111156200007157600080fd5b81518560018202830111640100000000821117156200008f57600080fd5b5050929190505050818181600160006101000a81548173ffffffffffffffffffffffffffffffffffffffff021916908373ffffffffffffffffffffffffffffffffffffffff1602179055508060009080519060200190620000f29291906200010d565b505050600160028190555060026003819055505050620001bc565b828054600181600116156101000203166002900490600052602060002090601f016020900481019282601f106200015057805160ff191683800117855562000181565b8280016001018555821562000181579182015b828111156200018057825182559160200191906001019062000163565b5b50905062000190919062000194565b5090565b620001b991905b80821115620001b55760008160009055506001016200019b565b5090565b90565b610eeb80620001cc6000396000f3fe6080604052600436106100af576000357c0100000000000000000000000000000000000000000000000000000000900463ffffffff1680630121b93f146100b4578063052cbab6146100e25780632bdd2c9414610139578063564faa401461016757806371f13071146101e2578063860c851a1461029d578063ad973d74146102c8578063d1118f5a14610319578063e0072e2f146103a9578063e865579f146103d4578063f2a6d5df14610423575b600080fd5b6100e0600480360360208110156100ca57600080fd5b810190808035906020019092919050505061048c565b005b3480156100ee57600080fd5b506100f761079a565b604051808273ffffffffffffffffffffffffffffffffffffffff1673ffffffffffffffffffffffffffffffffffffffff16815260200191505060405180910390f35b6101656004803603602081101561014f57600080fd5b81019080803590602001909291905050506107c0565b005b34801561017357600080fd5b506101a06004803603602081101561018a57600080fd5b810190808035906020019092919050505061094a565b604051808273ffffffffffffffffffffffffffffffffffffffff1673ffffffffffffffffffffffffffffffffffffffff16815260200191505060405180910390f35b61029b600480360360208110156101f857600080fd5b810190808035906020019064010000000081111561021557600080fd5b82018360208201111561022757600080fd5b8035906020019184600183028401116401000000008311171561024957600080fd5b91908080601f016020809104026020016040519081016040528093929190818152602001838380828437600081840152601f19601f82011690508083019250505050505050919291929050505061097d565b005b3480156102a957600080fd5b506102b2610aa4565b6040518082815260200191505060405180910390f35b3480156102d457600080fd5b50610317600480360360208110156102eb57600080fd5b81019080803573ffffffffffffffffffffffffffffffffffffffff169060200190929190505050610aaa565b005b34801561032557600080fd5b5061032e610b61565b6040518080602001828103825283818151815260200191508051906020019080838360005b8381101561036e578082015181840152602081019050610353565b50505050905090810190601f16801561039b5780820380516001836020036101000a031916815260200191505b509250505060405180910390f35b3480156103b557600080fd5b506103be610bff565b6040518082815260200191505060405180910390f35b3480156103e057600080fd5b5061040d600480360360208110156103f757600080fd5b8101908080359060200190929190505050610c05565b6040518082815260200191505060405180910390f35b34801561042f57600080fd5b506104726004803603602081101561044657600080fd5b81019080803573ffffffffffffffffffffffffffffffffffffffff169060200190929190505050610c1d565b604051808215151515815260200191505060405180910390f35b600460003373ffffffffffffffffffffffffffffffffffffffff1673ffffffffffffffffffffffffffffffffffffffff16815260200190815260200160002060009054906101000a900460ff1615156104e457600080fd5b6000600760008381526020019081526020016000205414151561050657600080fd5b600460003373ffffffffffffffffffffffffffffffffffffffff1673ffffffffffffffffffffffffffffffffffffffff16815260200190815260200160002060009054906101000a900460ff16151561055e57600080fd5b600860003373ffffffffffffffffffffffffffffffffffffffff1673ffffffffffffffffffffffffffffffffffffffff16815260200190815260200160002060009054906101000a900460ff161515156105b757600080fd5b60025434101515156105c857600080fd5b6001600860003373ffffffffffffffffffffffffffffffffffffffff1673ffffffffffffffffffffffffffffffffffffffff16815260200190815260200160002060006101000a81548160ff021916908315150217905550600a60008281526020019081526020016000203390806001815401808255809150509060018203906000526020600020016000909192909190916101000a81548173ffffffffffffffffffffffffffffffffffffffff021916908373ffffffffffffffffffffffffffffffffffffffff160217905550506106be60016009600084815260200190815260200160002054610c3d90919063ffffffff16565b6009600083815260200190815260200160002081905550600360096000838152602001908152602001600020541015156107455760035460076000838152602001908152602001600020819055506107226002600354610c3d90919063ffffffff16565b60038190555061073e6001600254610c3d90919063ffffffff16565b6002819055505b7f72c8cfaeb24031a8f8095b07d2a48b3a98701e92e39cac3be357d76cd518c33c816007600084815260200190815260200160002054604051808381526020018281526020019250505060405180910390a150565b600160009054906101000a900473ffffffffffffffffffffffffffffffffffffffff1681565b600760008281526020019081526020016000205434101515156107e257600080fd5b6006600082815260200190815260200160002060009054906101000a900473ffffffffffffffffffffffffffffffffffffffff1673ffffffffffffffffffffffffffffffffffffffff166108fc60076000848152602001908152602001600020549081150290604051600060405180830381858888f1935050505015801561086e573d6000803e3d6000fd5b507fce70e94fc7b43d4faf812f9a9ff600cafe0d3d009ffb754b10d1f68cc9a4fbf960058281548110151561089f57fe5b906000526020600020906002020160010160405180806020018281038252838181546001816001161561010002031660029004815260200191508054600181600116156101000203166002900480156109395780601f1061090e57610100808354040283529160200191610939565b820191906000526020600020905b81548152906001019060200180831161091c57829003601f168201915b50509250505060405180910390a150565b60066020528060005260406000206000915054906101000a900473ffffffffffffffffffffffffffffffffffffffff1681565b600460003373ffffffffffffffffffffffffffffffffffffffff1673ffffffffffffffffffffffffffffffffffffffff16815260200190815260200160002060009054906101000a900460ff1615156109d557600080fd5b600860003373ffffffffffffffffffffffffffffffffffffffff1673ffffffffffffffffffffffffffffffffffffffff16815260200190815260200160002060009054906101000a900460ff16151515610a2e57600080fd5b6003543410151515610a3f57600080fd5b610a493382610cc7565b6001600860003373ffffffffffffffffffffffffffffffffffffffff1673ffffffffffffffffffffffffffffffffffffffff16815260200190815260200160002060006101000a81548160ff02191690831515021790555050565b60025481565b3373ffffffffffffffffffffffffffffffffffffffff16600160009054906101000a900473ffffffffffffffffffffffffffffffffffffffff1673ffffffffffffffffffffffffffffffffffffffff16141515610b0657600080fd5b6001600460008373ffffffffffffffffffffffffffffffffffffffff1673ffffffffffffffffffffffffffffffffffffffff16815260200190815260200160002060006101000a81548160ff02191690831515021790555050565b60008054600181600116156101000203166002900480601f016020809104026020016040519081016040528092919081815260200182805460018160011615610100020316600290048015610bf75780601f10610bcc57610100808354040283529160200191610bf7565b820191906000526020600020905b815481529060010190602001808311610bda57829003601f168201915b505050505081565b60035481565b60076020528060005260406000206000915090505481565b60086020528060005260406000206000915054906101000a900460ff1681565b6000808284019050838110151515610cbd576040517f08c379a000000000000000000000000000000000000000000000000000000000815260040180806020018281038252601b8152602001807f536166654d6174683a206164646974696f6e206f766572666c6f77000000000081525060200191505060405180910390fd5b8091505092915050565b60006001600560408051908101604052808673ffffffffffffffffffffffffffffffffffffffff168152602001858152509080600181540180825580915050906001820390600052602060002090600202016000909192909190915060008201518160000160006101000a81548173ffffffffffffffffffffffffffffffffffffffff021916908373ffffffffffffffffffffffffffffffffffffffff1602179055506020820151816001019080519060200190610d86929190610e1a565b505050039050826006600083815260200190815260200160002060006101000a81548173ffffffffffffffffffffffffffffffffffffffff021916908373ffffffffffffffffffffffffffffffffffffffff1602179055507f56a23940a61fb1a524cd941d912314540a8fa8e62191d2d152d0fd3472688027816040518082815260200191505060405180910390a1505050565b828054600181600116156101000203166002900490600052602060002090601f016020900481019282601f10610e5b57805160ff1916838001178555610e89565b82800160010185558215610e89579182015b82811115610e88578251825591602001919060010190610e6d565b5b509050610e969190610e9a565b5090565b610ebc91905b80821115610eb8576000816000905550600101610ea0565b5090565b9056fea165627a7a72305820ee7ba824decb29568ebc982ba14f54e98d834203077abe1c39615fe4c3c0fa3e0029a165627a7a723058205540e52c409f463621c5380bcf1971fdad9dc61fa4146379b0034831bb3fe1f50029",
  "source": "pragma solidity >=0.5.0 <0.6.0;\n\nimport \"./shopCommentFactory.sol\";\n\ncontract shopGenerator {\n\n\taddress private owner;\n\n    constructor() public {\n        owner = msg.sender;\n    }\n\n\tevent newShop(shopCommentFactory _newContract);\n\n\tfunction shopContractGenerator(address _owner, string memory _shopName) public {\n\t\tshopCommentFactory _newContract = new shopCommentFactory(_owner, _shopName);\n\t\temit newShop(_newContract);\n\t}\n}\n",
  "sourcePath": "/Users/jefferyhsieh/Desktop/workspace/shop_around_me/web/solidity/contracts/shopGenerator.sol",
  "compiler": {
    "name": "solc",
    "version": "0.5.0+commit.1d4f565a.Emscripten.clang"
  },
  "schemaVersion": "3.0.2",
  "updatedAt": "2019-06-03T07:41:42.425Z",
  "devdoc": {
    "methods": {}
  },
  "userdoc": {
    "methods": {}
  }
}